{
  "contractName": "cooverContract",
  "abi": [
    {
      "inputs": [
        {
          "internalType": "address[]",
          "name": "integrantes",
          "type": "address[]"
        },
        {
          "internalType": "uint256[]",
          "name": "imei",
          "type": "uint256[]"
        }
      ],
      "stateMutability": "nonpayable",
      "type": "constructor"
    },
    {
      "inputs": [],
      "name": "partContrato",
      "outputs": [
        {
          "internalType": "bool",
          "name": "",
          "type": "bool"
        }
      ],
      "stateMutability": "view",
      "type": "function",
      "constant": true
    },
    {
      "inputs": [
        {
          "internalType": "address",
          "name": "",
          "type": "address"
        }
      ],
      "name": "partImei",
      "outputs": [
        {
          "internalType": "uint256",
          "name": "",
          "type": "uint256"
        }
      ],
      "stateMutability": "view",
      "type": "function",
      "constant": true
    },
    {
      "inputs": [
        {
          "internalType": "address",
          "name": "",
          "type": "address"
        }
      ],
      "name": "partValor",
      "outputs": [
        {
          "internalType": "uint256",
          "name": "",
          "type": "uint256"
        }
      ],
      "stateMutability": "view",
      "type": "function",
      "constant": true
    },
    {
      "inputs": [
        {
          "internalType": "address",
          "name": "",
          "type": "address"
        }
      ],
      "name": "pedidos",
      "outputs": [
        {
          "internalType": "uint256",
          "name": "",
          "type": "uint256"
        }
      ],
      "stateMutability": "view",
      "type": "function",
      "constant": true
    },
    {
      "inputs": [],
      "name": "saldoContrato",
      "outputs": [
        {
          "internalType": "uint256",
          "name": "",
          "type": "uint256"
        }
      ],
      "stateMutability": "view",
      "type": "function",
      "constant": true
    },
    {
      "inputs": [],
      "name": "totalContrato",
      "outputs": [
        {
          "internalType": "uint256",
          "name": "",
          "type": "uint256"
        }
      ],
      "stateMutability": "view",
      "type": "function",
      "constant": true
    },
    {
      "inputs": [],
      "name": "usuarios",
      "outputs": [
        {
          "internalType": "uint256",
          "name": "",
          "type": "uint256"
        }
      ],
      "stateMutability": "view",
      "type": "function",
      "constant": true
    },
    {
      "inputs": [],
      "name": "pagamentoInicial",
      "outputs": [],
      "stateMutability": "payable",
      "type": "function",
      "payable": true
    },
    {
      "inputs": [],
      "name": "entrar",
      "outputs": [],
      "stateMutability": "payable",
      "type": "function",
      "payable": true
    },
    {
      "inputs": [],
      "name": "obterSaldo",
      "outputs": [
        {
          "internalType": "uint256",
          "name": "",
          "type": "uint256"
        }
      ],
      "stateMutability": "view",
      "type": "function",
      "constant": true
    },
    {
      "inputs": [
        {
          "internalType": "address",
          "name": "usuario",
          "type": "address"
        }
      ],
      "name": "reposicaoReserva",
      "outputs": [],
      "stateMutability": "payable",
      "type": "function",
      "payable": true
    },
    {
      "inputs": [],
      "name": "saldo_Contrato",
      "outputs": [
        {
          "internalType": "uint256",
          "name": "",
          "type": "uint256"
        }
      ],
      "stateMutability": "view",
      "type": "function",
      "constant": true
    },
    {
      "inputs": [
        {
          "internalType": "address",
          "name": "_mudanca",
          "type": "address"
        },
        {
          "internalType": "uint256",
          "name": "_value",
          "type": "uint256"
        },
        {
          "internalType": "string",
          "name": "oper",
          "type": "string"
        }
      ],
      "name": "modificarSaldo",
      "outputs": [],
      "stateMutability": "nonpayable",
      "type": "function"
    },
    {
      "inputs": [
        {
          "internalType": "uint256",
          "name": "quantidade",
          "type": "uint256"
        }
      ],
      "name": "pedirIndenizacao",
      "outputs": [],
      "stateMutability": "nonpayable",
      "type": "function"
    },
    {
      "inputs": [
        {
          "internalType": "address",
          "name": "contratantes",
          "type": "address"
        }
      ],
      "name": "aceitarIndenizacao",
      "outputs": [],
      "stateMutability": "nonpayable",
      "type": "function"
    }
  ],
  "bytecode": "0x60806040523480156200001157600080fd5b50604051620017193803806200171983398181016040528101906200003791906200043b565b60005b8251811015620000d8578181815181106200005a5762000059620004c0565b5b6020026020010151600260008584815181106200007c576200007b620004c0565b5b602002602001015173ffffffffffffffffffffffffffffffffffffffff1673ffffffffffffffffffffffffffffffffffffffff168152602001908152602001600020819055508080620000cf906200051e565b9150506200003a565b50336000806101000a81548173ffffffffffffffffffffffffffffffffffffffff021916908373ffffffffffffffffffffffffffffffffffffffff1602179055506001600460006101000a81548160ff02191690831515021790555050506200056b565b6000604051905090565b600080fd5b600080fd5b600080fd5b6000601f19601f8301169050919050565b7f4e487b7100000000000000000000000000000000000000000000000000000000600052604160045260246000fd5b620001a08262000155565b810181811067ffffffffffffffff82111715620001c257620001c162000166565b5b80604052505050565b6000620001d76200013c565b9050620001e5828262000195565b919050565b600067ffffffffffffffff82111562000208576200020762000166565b5b602082029050602081019050919050565b600080fd5b600073ffffffffffffffffffffffffffffffffffffffff82169050919050565b60006200024b826200021e565b9050919050565b6200025d816200023e565b81146200026957600080fd5b50565b6000815190506200027d8162000252565b92915050565b60006200029a6200029484620001ea565b620001cb565b90508083825260208201905060208402830185811115620002c057620002bf62000219565b5b835b81811015620002ed5780620002d888826200026c565b845260208401935050602081019050620002c2565b5050509392505050565b600082601f8301126200030f576200030e62000150565b5b81516200032184826020860162000283565b91505092915050565b600067ffffffffffffffff82111562000348576200034762000166565b5b602082029050602081019050919050565b6000819050919050565b6200036e8162000359565b81146200037a57600080fd5b50565b6000815190506200038e8162000363565b92915050565b6000620003ab620003a5846200032a565b620001cb565b90508083825260208201905060208402830185811115620003d157620003d062000219565b5b835b81811015620003fe5780620003e988826200037d565b845260208401935050602081019050620003d3565b5050509392505050565b600082601f83011262000420576200041f62000150565b5b81516200043284826020860162000394565b91505092915050565b6000806040838503121562000455576200045462000146565b5b600083015167ffffffffffffffff8111156200047657620004756200014b565b5b6200048485828601620002f7565b925050602083015167ffffffffffffffff811115620004a857620004a76200014b565b5b620004b68582860162000408565b9150509250929050565b7f4e487b7100000000000000000000000000000000000000000000000000000000600052603260045260246000fd5b7f4e487b7100000000000000000000000000000000000000000000000000000000600052601160045260246000fd5b60006200052b8262000359565b91507fffffffffffffffffffffffffffffffffffffffffffffffffffffffffffffffff820362000560576200055f620004ef565b5b600182019050919050565b61119e806200057b6000396000f3fe6080604052600436106100e85760003560e01c806383105b8c1161008a578063b8adbb6311610059578063b8adbb63146102b6578063bd64bfec146102e1578063c9db92141461030a578063f4ca19a214610347576100e8565b806383105b8c1461021b5780638764fc551461024457806390537cd21461026f578063a14ed9a11461029a576100e8565b806359f78f16116100c657806359f78f1614610192578063691d2c5c146101bd5780636ede315e146101e65780637777065714610211576100e8565b806318daac68146100ed5780632be76396146101185780633cfdc49914610155575b600080fd5b3480156100f957600080fd5b50610102610351565b60405161010f9190610b16565b60405180910390f35b34801561012457600080fd5b5061013f600480360381019061013a9190610ba3565b610364565b60405161014c9190610be9565b60405180910390f35b34801561016157600080fd5b5061017c60048036038101906101779190610ba3565b61037c565b6040516101899190610be9565b60405180910390f35b34801561019e57600080fd5b506101a7610394565b6040516101b49190610be9565b60405180910390f35b3480156101c957600080fd5b506101e460048036038101906101df9190610d76565b61039a565b005b3480156101f257600080fd5b506101fb6106f9565b6040516102089190610be9565b60405180910390f35b610219610701565b005b34801561022757600080fd5b50610242600480360381019061023d9190610de5565b610839565b005b34801561025057600080fd5b506102596108d5565b6040516102669190610be9565b60405180910390f35b34801561027b57600080fd5b5061028461091c565b6040516102919190610be9565b60405180910390f35b6102b460048036038101906102af9190610ba3565b610922565b005b3480156102c257600080fd5b506102cb6109b7565b6040516102d89190610be9565b60405180910390f35b3480156102ed57600080fd5b5061030860048036038101906103039190610ba3565b6109bd565b005b34801561031657600080fd5b50610331600480360381019061032c9190610ba3565b610a8b565b60405161033e9190610be9565b60405180910390f35b61034f610aa3565b005b600460009054906101000a900460ff1681565b60036020528060005260406000206000915090505481565b60026020528060005260406000206000915090505481565b60065481565b60008054906101000a900473ffffffffffffffffffffffffffffffffffffffff1673ffffffffffffffffffffffffffffffffffffffff163373ffffffffffffffffffffffffffffffffffffffff16146103f257600080fd5b6040518060400160405280600381526020017f7375620000000000000000000000000000000000000000000000000000000000815250805190602001208180519060200120148061048557506040518060400160405280600481526020017f706c757300000000000000000000000000000000000000000000000000000000815250805190602001208180519060200120145b6104c4576040517f08c379a00000000000000000000000000000000000000000000000000000000081526004016104bb90610e6f565b60405180910390fd5b6040518060400160405280600381526020017f7375620000000000000000000000000000000000000000000000000000000000815250805190602001208180519060200120036106525781600260008573ffffffffffffffffffffffffffffffffffffffff1673ffffffffffffffffffffffffffffffffffffffff168152602001908152602001600020541015610590576040517f08c379a000000000000000000000000000000000000000000000000000000000815260040161058790610edb565b60405180910390fd5b81600260008573ffffffffffffffffffffffffffffffffffffffff1673ffffffffffffffffffffffffffffffffffffffff16815260200190815260200160002060008282546105df9190610f2a565b9250508190555060008054906101000a900473ffffffffffffffffffffffffffffffffffffffff1673ffffffffffffffffffffffffffffffffffffffff166108fc839081150290604051600060405180830381858888f1935050505015801561064c573d6000803e3d6000fd5b506106f4565b6040518060400160405280600481526020017f706c757300000000000000000000000000000000000000000000000000000000815250805190602001208180519060200120036106f35781600260008573ffffffffffffffffffffffffffffffffffffffff1673ffffffffffffffffffffffffffffffffffffffff16815260200190815260200160002060008282546106eb9190610f5e565b925050819055505b5b505050565b600047905090565b60011515600460009054906101000a900460ff16151514610757576040517f08c379a000000000000000000000000000000000000000000000000000000000815260040161074e90610fde565b60405180910390fd5b6000600260003373ffffffffffffffffffffffffffffffffffffffff1673ffffffffffffffffffffffffffffffffffffffff16815260200190815260200160002054146107d9576040517f08c379a00000000000000000000000000000000000000000000000000000000081526004016107d09061104a565b60405180910390fd5b34600260003373ffffffffffffffffffffffffffffffffffffffff1673ffffffffffffffffffffffffffffffffffffffff168152602001908152602001600020819055506001600560008282546108309190610f5e565b92505081905550565b6000811161087c576040517f08c379a0000000000000000000000000000000000000000000000000000000008152600401610873906110b6565b60405180910390fd5b80600360003373ffffffffffffffffffffffffffffffffffffffff1673ffffffffffffffffffffffffffffffffffffffff16815260200190815260200160002060008282546108cb9190610f5e565b9250508190555050565b6000600160003373ffffffffffffffffffffffffffffffffffffffff1673ffffffffffffffffffffffffffffffffffffffff16815260200190815260200160002054905090565b60055481565b600060075414610967576040517f08c379a000000000000000000000000000000000000000000000000000000000815260040161095e90611148565b60405180910390fd5b600160008273ffffffffffffffffffffffffffffffffffffffff1673ffffffffffffffffffffffffffffffffffffffff168152602001908152602001600020546006819055503460078190555050565b60075481565b8073ffffffffffffffffffffffffffffffffffffffff166108fc600360008473ffffffffffffffffffffffffffffffffffffffff1673ffffffffffffffffffffffffffffffffffffffff168152602001908152602001600020549081150290604051600060405180830381858888f19350505050158015610a42573d6000803e3d6000fd5b506000600360008373ffffffffffffffffffffffffffffffffffffffff1673ffffffffffffffffffffffffffffffffffffffff1681526020019081526020016000208190555050565b60016020528060005260406000206000915090505481565b34600160003373ffffffffffffffffffffffffffffffffffffffff1673ffffffffffffffffffffffffffffffffffffffff1681526020019081526020016000206000828254610af29190610f5e565b92505081905550565b60008115159050919050565b610b1081610afb565b82525050565b6000602082019050610b2b6000830184610b07565b92915050565b6000604051905090565b600080fd5b600080fd5b600073ffffffffffffffffffffffffffffffffffffffff82169050919050565b6000610b7082610b45565b9050919050565b610b8081610b65565b8114610b8b57600080fd5b50565b600081359050610b9d81610b77565b92915050565b600060208284031215610bb957610bb8610b3b565b5b6000610bc784828501610b8e565b91505092915050565b6000819050919050565b610be381610bd0565b82525050565b6000602082019050610bfe6000830184610bda565b92915050565b610c0d81610bd0565b8114610c1857600080fd5b50565b600081359050610c2a81610c04565b92915050565b600080fd5b600080fd5b6000601f19601f8301169050919050565b7f4e487b7100000000000000000000000000000000000000000000000000000000600052604160045260246000fd5b610c8382610c3a565b810181811067ffffffffffffffff82111715610ca257610ca1610c4b565b5b80604052505050565b6000610cb5610b31565b9050610cc18282610c7a565b919050565b600067ffffffffffffffff821115610ce157610ce0610c4b565b5b610cea82610c3a565b9050602081019050919050565b82818337600083830152505050565b6000610d19610d1484610cc6565b610cab565b905082815260208101848484011115610d3557610d34610c35565b5b610d40848285610cf7565b509392505050565b600082601f830112610d5d57610d5c610c30565b5b8135610d6d848260208601610d06565b91505092915050565b600080600060608486031215610d8f57610d8e610b3b565b5b6000610d9d86828701610b8e565b9350506020610dae86828701610c1b565b925050604084013567ffffffffffffffff811115610dcf57610dce610b40565b5b610ddb86828701610d48565b9150509250925092565b600060208284031215610dfb57610dfa610b3b565b5b6000610e0984828501610c1b565b91505092915050565b600082825260208201905092915050565b7f736f20737562206f7520706c7573000000000000000000000000000000000000600082015250565b6000610e59600e83610e12565b9150610e6482610e23565b602082019050919050565b60006020820190508181036000830152610e8881610e4c565b9050919050565b7f53656d2073616c646f20737566696369656e7465000000000000000000000000600082015250565b6000610ec5601483610e12565b9150610ed082610e8f565b602082019050919050565b60006020820190508181036000830152610ef481610eb8565b9050919050565b7f4e487b7100000000000000000000000000000000000000000000000000000000600052601160045260246000fd5b6000610f3582610bd0565b9150610f4083610bd0565b9250828203905081811115610f5857610f57610efb565b5b92915050565b6000610f6982610bd0565b9150610f7483610bd0565b9250828201905080821115610f8c57610f8b610efb565b5b92915050565b7f436f6e747261746f20696e617469766f00000000000000000000000000000000600082015250565b6000610fc8601083610e12565b9150610fd382610f92565b602082019050919050565b60006020820190508181036000830152610ff781610fbb565b9050919050565b7f4a61207061727469636970616e74650000000000000000000000000000000000600082015250565b6000611034600f83610e12565b915061103f82610ffe565b602082019050919050565b6000602082019050818103600083015261106381611027565b9050919050565b7f56616c6f7220696e76616c69646f000000000000000000000000000000000000600082015250565b60006110a0600e83610e12565b91506110ab8261106a565b602082019050919050565b600060208201905081810360008301526110cf81611093565b9050919050565b7f41207265736572766120646f20636f6e747261746f207072656369736120736560008201527f72207265706f7374610000000000000000000000000000000000000000000000602082015250565b6000611132602983610e12565b915061113d826110d6565b604082019050919050565b6000602082019050818103600083015261116181611125565b905091905056fea26469706673582212207472f0ef42067b6a86007a90de68dd5d660bf6a605a95a608e3a23d2278154d764736f6c63430008130033",
  "immutableReferences": {},
  "source": "//SPDX-License-Identifier: MIT\r\npragma solidity ^0.8.0;\r\ncontract cooverContract{\r\n    //Declarando as variveis utilizadas no cdigo.\r\n    address dono; //Dono do contrato\r\n    mapping (address => uint) public partValor; // Relaciona a carteira com o saldo\r\n    mapping (address => uint) public partImei; // Relaciona a carteira com o IMEI do celular\r\n    mapping (address => uint256) public pedidos; //pedidos dos contratantes\r\n    bool public partContrato; // Verifica se o contrato est ativo ou inativo\r\n    uint public usuarios; // Usado para verificar a quantidade de pessoas dentro do contrato\r\n    uint public saldoContrato; // Saldo do contrato\r\n    uint public totalContrato; // Total dentro do contrato\r\n    // Garante que o msg sender  o dono do contrato antes de realizar as funes\r\n    modifier msgsender(){\r\n        require(msg.sender == dono); _;\r\n    }\r\n    \r\n    // Constructor  uma espcie de funo que roda apenas no deploy do contrato\r\n    constructor( address[] memory integrantes, uint[] memory imei ) {\r\n        for(uint i = 0; i<integrantes.length; i++){\r\n            partImei[integrantes[i]] = imei[i]; // Adiciona o IMEI para cada participante\r\n        }\r\n        dono = msg.sender; // Atribui o msg sender como o dono do contrato\r\n        partContrato = true; // Ativa o contrato\r\n    }\r\n\r\n    // Funo responsvel pela entrada ($$) de um participante no contrato\r\n    function pagamentoInicial() public payable{\r\n        partValor[msg.sender] += msg.value; // Adiciona o valor ao saldo do participante\r\n    }\r\n\r\n    // Funo para adicionar um usurio a lista nmerica da quantidade de usurio dentro do contrato\r\n    function entrar() public payable {\r\n        require(partContrato == true, \"Contrato inativo\"); // Verifica se o contrato est ativo\r\n        require(partImei[msg.sender] == 0, \"Ja participante\"); // Verifica se o participante j est na lista\r\n        partImei[msg.sender] = msg.value; // Adiciona o valor do pagamento como IMEI do celular\r\n        usuarios += 1; // Adiciona um usurio\r\n    }\r\n\r\n    // Responsvel por verificar o saldo de uma carteira\r\n    function obterSaldo() public view returns (uint) {\r\n        return partValor[msg.sender]; // Retorna o saldo\r\n    }\r\n\r\n   // Funo responsvel por repor a reserva financeira do contato\r\n    function reposicaoReserva(address usuario) public payable{\r\n        require(totalContrato == 0, \"A reserva do contrato precisa ser reposta\"); // Verifica se a reserva est com valor igual a 0\r\n        saldoContrato = partValor[usuario]; // Atribui o valor da carteira do usurio como saldo do contrato\r\n        totalContrato = msg.value; // Atribui o valor da mensagem como total do contrato\r\n    }\r\n\r\n    // Mostra o saldo contido dentro do contrato\r\n    function saldo_Contrato() public view returns (uint) {\r\n        return address(this).balance; // Retorna o saldo do contrato\r\n    }\r\n\r\n    // Mudana de saldo de acordo com a indenizao\r\n    function modificarSaldo(address _mudanca, uint _value, string memory oper) public msgsender {\r\n        require(keccak256(bytes(oper)) == keccak256(bytes(\"sub\")) || keccak256(bytes(oper)) == keccak256(bytes(\"plus\")), \"so sub ou plus\"); // Verifica se a operao a ser realizada  uma subtrao ou adio\r\n        if (keccak256(bytes(oper)) == keccak256(bytes(\"sub\"))) { // Caso a operao seja uma subtrao\r\n            require(partImei[_mudanca] >= _value, \"Sem saldo suficiente\");\r\n            partImei[_mudanca] -= _value;\r\n            payable(dono).transfer(_value);\r\n        } else if (keccak256(bytes(oper)) == keccak256(bytes(\"plus\"))) { // Caso a operao seja uma adio\r\n            partImei[_mudanca] += _value;\r\n        }\r\n    }\r\n\r\n    //Funo para que o usurio pea uma indenizao\r\n    function pedirIndenizacao(uint256 quantidade) public{\r\n        require(quantidade > 0, \"Valor invalido\"); //garante que  um valor\r\n        pedidos[msg.sender] += quantidade;\r\n    }\r\n\r\n    //Funo para que um administrador possa aceitar um pedido de indenizao\r\n    function aceitarIndenizacao(address contratantes) public {\r\n        payable(contratantes).transfer(pedidos[contratantes]);\r\n        pedidos[contratantes] = 0;\r\n}\r\n}",
  "sourcePath": "C:\\GitHub - Projetos\\INTELI 2 ANO\\MODULO 1\\Projeto2\\src\\Deploy\\contracts\\cooverContract.sol",
  "compiler": {
    "name": "solc",
    "version": "0.8.19+commit.7dd6d404.Emscripten.clang"
  },
  "schemaVersion": "3.4.13",
  "updatedAt": "2023-04-03T20:48:37.156Z",
  "networkType": "ethereum",
  "devdoc": {
    "kind": "dev",
    "methods": {},
    "version": 1
  },
  "userdoc": {
    "kind": "user",
    "methods": {},
    "version": 1
  }
}