{
  "contractName": "cooverContract",
  "abi": [
    {
      "inputs": [
        {
          "internalType": "uint256",
          "name": "_minUsers",
          "type": "uint256"
        },
        {
          "internalType": "uint256",
          "name": "_maxUsers",
          "type": "uint256"
        },
        {
          "internalType": "uint256",
          "name": "_numberusers",
          "type": "uint256"
        },
        {
          "internalType": "address[]",
          "name": "integrantes",
          "type": "address[]"
        },
        {
          "internalType": "uint256[]",
          "name": "imei",
          "type": "uint256[]"
        }
      ],
      "stateMutability": "nonpayable",
      "type": "constructor"
    },
    {
      "inputs": [],
      "name": "balance",
      "outputs": [
        {
          "internalType": "uint256",
          "name": "",
          "type": "uint256"
        }
      ],
      "stateMutability": "view",
      "type": "function"
    },
    {
      "inputs": [],
      "name": "coverage",
      "outputs": [
        {
          "internalType": "uint256",
          "name": "",
          "type": "uint256"
        }
      ],
      "stateMutability": "view",
      "type": "function"
    },
    {
      "inputs": [],
      "name": "creationDate",
      "outputs": [
        {
          "internalType": "uint256",
          "name": "",
          "type": "uint256"
        }
      ],
      "stateMutability": "view",
      "type": "function"
    },
    {
      "inputs": [],
      "name": "isActive",
      "outputs": [
        {
          "internalType": "bool",
          "name": "",
          "type": "bool"
        }
      ],
      "stateMutability": "view",
      "type": "function"
    },
    {
      "inputs": [],
      "name": "maxUsers",
      "outputs": [
        {
          "internalType": "uint256",
          "name": "",
          "type": "uint256"
        }
      ],
      "stateMutability": "view",
      "type": "function"
    },
    {
      "inputs": [],
      "name": "minUsers",
      "outputs": [
        {
          "internalType": "uint256",
          "name": "",
          "type": "uint256"
        }
      ],
      "stateMutability": "view",
      "type": "function"
    },
    {
      "inputs": [],
      "name": "monthly",
      "outputs": [
        {
          "internalType": "uint256",
          "name": "",
          "type": "uint256"
        }
      ],
      "stateMutability": "view",
      "type": "function"
    },
    {
      "inputs": [],
      "name": "numberusers",
      "outputs": [
        {
          "internalType": "uint256",
          "name": "",
          "type": "uint256"
        }
      ],
      "stateMutability": "view",
      "type": "function"
    },
    {
      "inputs": [
        {
          "internalType": "address",
          "name": "",
          "type": "address"
        }
      ],
      "name": "participants",
      "outputs": [
        {
          "internalType": "uint256",
          "name": "",
          "type": "uint256"
        }
      ],
      "stateMutability": "view",
      "type": "function"
    },
    {
      "inputs": [
        {
          "internalType": "address",
          "name": "",
          "type": "address"
        }
      ],
      "name": "valorParticipants",
      "outputs": [
        {
          "internalType": "uint256",
          "name": "",
          "type": "uint256"
        }
      ],
      "stateMutability": "view",
      "type": "function"
    },
    {
      "inputs": [
        {
          "internalType": "uint256",
          "name": "",
          "type": "uint256"
        }
      ],
      "name": "wallet",
      "outputs": [
        {
          "internalType": "address",
          "name": "userWallet",
          "type": "address"
        }
      ],
      "stateMutability": "view",
      "type": "function"
    },
    {
      "inputs": [],
      "name": "viabilidadeContrato",
      "outputs": [
        {
          "internalType": "uint256",
          "name": "",
          "type": "uint256"
        }
      ],
      "stateMutability": "view",
      "type": "function"
    },
    {
      "inputs": [],
      "name": "pagamentoInicial",
      "outputs": [],
      "stateMutability": "payable",
      "type": "function"
    },
    {
      "inputs": [],
      "name": "join",
      "outputs": [],
      "stateMutability": "payable",
      "type": "function"
    },
    {
      "inputs": [
        {
          "internalType": "address",
          "name": "_mudanca",
          "type": "address"
        },
        {
          "internalType": "uint256",
          "name": "_value",
          "type": "uint256"
        },
        {
          "internalType": "string",
          "name": "oper",
          "type": "string"
        }
      ],
      "name": "changeBalance",
      "outputs": [],
      "stateMutability": "nonpayable",
      "type": "function"
    },
    {
      "inputs": [],
      "name": "getBalance",
      "outputs": [
        {
          "internalType": "uint256",
          "name": "",
          "type": "uint256"
        }
      ],
      "stateMutability": "view",
      "type": "function"
    },
    {
      "inputs": [
        {
          "internalType": "address",
          "name": "usuario",
          "type": "address"
        }
      ],
      "name": "removeUser",
      "outputs": [],
      "stateMutability": "nonpayable",
      "type": "function"
    },
    {
      "inputs": [],
      "name": "solicitarIndenizacao",
      "outputs": [],
      "stateMutability": "nonpayable",
      "type": "function"
    }
  ],
  "bytecode": "0x60806040523480156200001157600080fd5b5060405162001f7c38038062001f7c83398181016040528101906200003791906200045a565b60005b8251811015620000d8578181815181106200005a576200005962000520565b5b6020026020010151600a60008584815181106200007c576200007b62000520565b5b602002602001015173ffffffffffffffffffffffffffffffffffffffff1673ffffffffffffffffffffffffffffffffffffffff168152602001908152602001600020819055508080620000cf906200057e565b9150506200003a565b50846005819055508360048190555082600681905550426001819055506001600760006101000a81548160ff021916908315150217905550336000806101000a81548173ffffffffffffffffffffffffffffffffffffffff021916908373ffffffffffffffffffffffffffffffffffffffff1602179055505050505050620005cb565b6000604051905090565b600080fd5b600080fd5b6000819050919050565b62000184816200016f565b81146200019057600080fd5b50565b600081519050620001a48162000179565b92915050565b600080fd5b6000601f19601f8301169050919050565b7f4e487b7100000000000000000000000000000000000000000000000000000000600052604160045260246000fd5b620001fa82620001af565b810181811067ffffffffffffffff821117156200021c576200021b620001c0565b5b80604052505050565b6000620002316200015b565b90506200023f8282620001ef565b919050565b600067ffffffffffffffff821115620002625762000261620001c0565b5b602082029050602081019050919050565b600080fd5b600073ffffffffffffffffffffffffffffffffffffffff82169050919050565b6000620002a58262000278565b9050919050565b620002b78162000298565b8114620002c357600080fd5b50565b600081519050620002d781620002ac565b92915050565b6000620002f4620002ee8462000244565b62000225565b905080838252602082019050602084028301858111156200031a576200031962000273565b5b835b81811015620003475780620003328882620002c6565b8452602084019350506020810190506200031c565b5050509392505050565b600082601f830112620003695762000368620001aa565b5b81516200037b848260208601620002dd565b91505092915050565b600067ffffffffffffffff821115620003a257620003a1620001c0565b5b602082029050602081019050919050565b6000620003ca620003c48462000384565b62000225565b90508083825260208201905060208402830185811115620003f057620003ef62000273565b5b835b818110156200041d578062000408888262000193565b845260208401935050602081019050620003f2565b5050509392505050565b600082601f8301126200043f576200043e620001aa565b5b815162000451848260208601620003b3565b91505092915050565b600080600080600060a0868803121562000479576200047862000165565b5b6000620004898882890162000193565b95505060206200049c8882890162000193565b9450506040620004af8882890162000193565b935050606086015167ffffffffffffffff811115620004d357620004d26200016a565b5b620004e18882890162000351565b925050608086015167ffffffffffffffff8111156200050557620005046200016a565b5b620005138882890162000427565b9150509295509295909350565b7f4e487b7100000000000000000000000000000000000000000000000000000000600052603260045260246000fd5b7f4e487b7100000000000000000000000000000000000000000000000000000000600052601160045260246000fd5b60006200058b826200016f565b91507fffffffffffffffffffffffffffffffffffffffffffffffffffffffffffffffff8203620005c057620005bf6200054f565b5b600182019050919050565b6119a180620005db6000396000f3fe6080604052600436106101095760003560e01c8063b688a36311610095578063d91c162d11610064578063d91c162d1461033c578063e1b0e80214610365578063ee8f6a0e14610390578063f4ca19a2146103bb578063fcd7e3c8146103c557610109565b8063b688a363146102b1578063b69ef8a8146102bb578063beda3054146102e6578063c33714bb1461031157610109565b806340f6154b116100dc57806340f6154b146101cc57806350b5fa75146101e35780635b93e37c1461020e578063985751881461024b578063a27813351461027457610109565b806305b344101461010e57806309e69ede1461013957806312065fe01461017657806322f3e2d4146101a1575b600080fd5b34801561011a57600080fd5b506101236103f0565b6040516101309190611100565b60405180910390f35b34801561014557600080fd5b50610160600480360381019061015b919061118d565b6103f6565b60405161016d9190611100565b60405180910390f35b34801561018257600080fd5b5061018b61040e565b6040516101989190611100565b60405180910390f35b3480156101ad57600080fd5b506101b6610455565b6040516101c391906111d5565b60405180910390f35b3480156101d857600080fd5b506101e1610468565b005b3480156101ef57600080fd5b506101f8610790565b6040516102059190611100565b60405180910390f35b34801561021a57600080fd5b506102356004803603810190610230919061118d565b610796565b6040516102429190611100565b60405180910390f35b34801561025757600080fd5b50610272600480360381019061026d919061118d565b6107ae565b005b34801561028057600080fd5b5061029b6004803603810190610296919061121c565b610a5d565b6040516102a89190611258565b60405180910390f35b6102b9610aa7565b005b3480156102c757600080fd5b506102d0610c23565b6040516102dd9190611100565b60405180910390f35b3480156102f257600080fd5b506102fb610c29565b6040516103089190611100565b60405180910390f35b34801561031d57600080fd5b50610326610c2f565b6040516103339190611100565b60405180910390f35b34801561034857600080fd5b50610363600480360381019061035e91906113b9565b610ce8565b005b34801561037157600080fd5b5061037a61107d565b6040516103879190611100565b60405180910390f35b34801561039c57600080fd5b506103a5611083565b6040516103b29190611100565b60405180910390f35b6103c3611089565b005b3480156103d157600080fd5b506103da6110e1565b6040516103e79190611100565b60405180910390f35b60015481565b600a6020528060005260406000206000915090505481565b6000600b60003373ffffffffffffffffffffffffffffffffffffffff1673ffffffffffffffffffffffffffffffffffffffff16815260200190815260200160002054905090565b600760009054906101000a900460ff1681565b6000600a60003373ffffffffffffffffffffffffffffffffffffffff1673ffffffffffffffffffffffffffffffffffffffff16815260200190815260200160002054116104ea576040517f08c379a00000000000000000000000000000000000000000000000000000000081526004016104e190611485565b60405180910390fd5b60011515600760009054906101000a900460ff16151514610540576040517f08c379a0000000000000000000000000000000000000000000000000000000008152600401610537906114f1565b60405180910390fd5b3373ffffffffffffffffffffffffffffffffffffffff166108fc6008549081150290604051600060405180830381858888f19350505050158015610588573d6000803e3d6000fd5b506008546003600082825461059d9190611540565b9250508190555060005b600980549050811015610730573373ffffffffffffffffffffffffffffffffffffffff16600982815481106105df576105de611574565b5b9060005260206000200160009054906101000a900473ffffffffffffffffffffffffffffffffffffffff1673ffffffffffffffffffffffffffffffffffffffff160361071d57600960016009805490506106399190611540565b8154811061064a57610649611574565b5b9060005260206000200160009054906101000a900473ffffffffffffffffffffffffffffffffffffffff166009828154811061068957610688611574565b5b9060005260206000200160006101000a81548173ffffffffffffffffffffffffffffffffffffffff021916908373ffffffffffffffffffffffffffffffffffffffff16021790555060098054806106e3576106e26115a3565b5b6001900381819060005260206000200160006101000a81549073ffffffffffffffffffffffffffffffffffffffff02191690559055610730565b8080610728906115d2565b9150506105a7565b506001600660008282546107449190611540565b92505081905550600a60003373ffffffffffffffffffffffffffffffffffffffff1673ffffffffffffffffffffffffffffffffffffffff16815260200190815260200160002060009055565b60065481565b600b6020528060005260406000206000915090505481565b60008054906101000a900473ffffffffffffffffffffffffffffffffffffffff1673ffffffffffffffffffffffffffffffffffffffff163373ffffffffffffffffffffffffffffffffffffffff161461083c576040517f08c379a000000000000000000000000000000000000000000000000000000000815260040161083390611666565b60405180910390fd5b60005b600c80549050811015610a59578173ffffffffffffffffffffffffffffffffffffffff16600c828154811061087757610876611574565b5b9060005260206000200160000160009054906101000a900473ffffffffffffffffffffffffffffffffffffffff1673ffffffffffffffffffffffffffffffffffffffff1603610a4657600c81815481106108d4576108d3611574565b5b90600052602060002001600080820160006101000a81549073ffffffffffffffffffffffffffffffffffffffff0219169055505060008190505b60016009805490506109209190611540565b8110156109e15760096001826109369190611686565b8154811061094757610946611574565b5b9060005260206000200160009054906101000a900473ffffffffffffffffffffffffffffffffffffffff166009828154811061098657610985611574565b5b9060005260206000200160006101000a81548173ffffffffffffffffffffffffffffffffffffffff021916908373ffffffffffffffffffffffffffffffffffffffff16021790555080806109d9906115d2565b91505061090e565b5060098054806109f4576109f36115a3565b5b6001900381819060005260206000200160006101000a81549073ffffffffffffffffffffffffffffffffffffffff0219169055905560066000815480929190610a3c906116ba565b9190505550610a59565b8080610a51906115d2565b91505061083f565b5050565b600c8181548110610a6d57600080fd5b906000526020600020016000915090508060000160009054906101000a900473ffffffffffffffffffffffffffffffffffffffff16905081565b6002543414610aeb576040517f08c379a0000000000000000000000000000000000000000000000000000000008152600401610ae29061172f565b60405180910390fd5b60011515600760009054906101000a900460ff16151514610b41576040517f08c379a0000000000000000000000000000000000000000000000000000000008152600401610b389061179b565b60405180910390fd5b6000600a60003373ffffffffffffffffffffffffffffffffffffffff1673ffffffffffffffffffffffffffffffffffffffff1681526020019081526020016000205414610bc3576040517f08c379a0000000000000000000000000000000000000000000000000000000008152600401610bba90611807565b60405180910390fd5b34600a60003373ffffffffffffffffffffffffffffffffffffffff1673ffffffffffffffffffffffffffffffffffffffff16815260200190815260200160002081905550600160066000828254610c1a9190611686565b92505081905550565b60035481565b60055481565b600060055460065410158015610c4757506001544211155b8015610c57575060045460065411155b15610c655760019050610ce5565b600554600654108015610c7a57506001544211155b15610c885760029050610ce5565b60015442118015610c9c5750600554600654105b15610caa5760039050610ce5565b6040517f08c379a0000000000000000000000000000000000000000000000000000000008152600401610cdc90611873565b60405180910390fd5b90565b60008054906101000a900473ffffffffffffffffffffffffffffffffffffffff1673ffffffffffffffffffffffffffffffffffffffff163373ffffffffffffffffffffffffffffffffffffffff1614610d76576040517f08c379a0000000000000000000000000000000000000000000000000000000008152600401610d6d90611666565b60405180910390fd5b6040518060400160405280600381526020017f73756200000000000000000000000000000000000000000000000000000000008152508051906020012081805190602001201480610e0957506040518060400160405280600481526020017f706c757300000000000000000000000000000000000000000000000000000000815250805190602001208180519060200120145b610e48576040517f08c379a0000000000000000000000000000000000000000000000000000000008152600401610e3f906118df565b60405180910390fd5b6040518060400160405280600381526020017f737562000000000000000000000000000000000000000000000000000000000081525080519060200120818051906020012003610fd65781600a60008573ffffffffffffffffffffffffffffffffffffffff1673ffffffffffffffffffffffffffffffffffffffff168152602001908152602001600020541015610f14576040517f08c379a0000000000000000000000000000000000000000000000000000000008152600401610f0b9061194b565b60405180910390fd5b81600a60008573ffffffffffffffffffffffffffffffffffffffff1673ffffffffffffffffffffffffffffffffffffffff1681526020019081526020016000206000828254610f639190611540565b9250508190555060008054906101000a900473ffffffffffffffffffffffffffffffffffffffff1673ffffffffffffffffffffffffffffffffffffffff166108fc839081150290604051600060405180830381858888f19350505050158015610fd0573d6000803e3d6000fd5b50611078565b6040518060400160405280600481526020017f706c757300000000000000000000000000000000000000000000000000000000815250805190602001208180519060200120036110775781600a60008573ffffffffffffffffffffffffffffffffffffffff1673ffffffffffffffffffffffffffffffffffffffff168152602001908152602001600020600082825461106f9190611686565b925050819055505b5b505050565b60045481565b60085481565b34600b60003373ffffffffffffffffffffffffffffffffffffffff1673ffffffffffffffffffffffffffffffffffffffff16815260200190815260200160002060008282546110d89190611686565b92505081905550565b60025481565b6000819050919050565b6110fa816110e7565b82525050565b600060208201905061111560008301846110f1565b92915050565b6000604051905090565b600080fd5b600080fd5b600073ffffffffffffffffffffffffffffffffffffffff82169050919050565b600061115a8261112f565b9050919050565b61116a8161114f565b811461117557600080fd5b50565b60008135905061118781611161565b92915050565b6000602082840312156111a3576111a2611125565b5b60006111b184828501611178565b91505092915050565b60008115159050919050565b6111cf816111ba565b82525050565b60006020820190506111ea60008301846111c6565b92915050565b6111f9816110e7565b811461120457600080fd5b50565b600081359050611216816111f0565b92915050565b60006020828403121561123257611231611125565b5b600061124084828501611207565b91505092915050565b6112528161114f565b82525050565b600060208201905061126d6000830184611249565b92915050565b600080fd5b600080fd5b6000601f19601f8301169050919050565b7f4e487b7100000000000000000000000000000000000000000000000000000000600052604160045260246000fd5b6112c68261127d565b810181811067ffffffffffffffff821117156112e5576112e461128e565b5b80604052505050565b60006112f861111b565b905061130482826112bd565b919050565b600067ffffffffffffffff8211156113245761132361128e565b5b61132d8261127d565b9050602081019050919050565b82818337600083830152505050565b600061135c61135784611309565b6112ee565b90508281526020810184848401111561137857611377611278565b5b61138384828561133a565b509392505050565b600082601f8301126113a05761139f611273565b5b81356113b0848260208601611349565b91505092915050565b6000806000606084860312156113d2576113d1611125565b5b60006113e086828701611178565b93505060206113f186828701611207565b925050604084013567ffffffffffffffff8111156114125761141161112a565b5b61141e8682870161138b565b9150509250925092565b600082825260208201905092915050565b7f4e616f2065207061727469636970616e746520646f20636f6e747261746f2e00600082015250565b600061146f601f83611428565b915061147a82611439565b602082019050919050565b6000602082019050818103600083015261149e81611462565b9050919050565b7f436f6e747261746f20696e617469766f2e000000000000000000000000000000600082015250565b60006114db601183611428565b91506114e6826114a5565b602082019050919050565b6000602082019050818103600083015261150a816114ce565b9050919050565b7f4e487b7100000000000000000000000000000000000000000000000000000000600052601160045260246000fd5b600061154b826110e7565b9150611556836110e7565b925082820390508181111561156e5761156d611511565b5b92915050565b7f4e487b7100000000000000000000000000000000000000000000000000000000600052603260045260246000fd5b7f4e487b7100000000000000000000000000000000000000000000000000000000600052603160045260246000fd5b60006115dd826110e7565b91507fffffffffffffffffffffffffffffffffffffffffffffffffffffffffffffffff820361160f5761160e611511565b5b600182019050919050565b7f6e616f20646f6e6f000000000000000000000000000000000000000000000000600082015250565b6000611650600883611428565b915061165b8261161a565b602082019050919050565b6000602082019050818103600083015261167f81611643565b9050919050565b6000611691826110e7565b915061169c836110e7565b92508282019050808211156116b4576116b3611511565b5b92915050565b60006116c5826110e7565b9150600082036116d8576116d7611511565b5b600182039050919050565b7f56616c6f7220696e636f727265746f0000000000000000000000000000000000600082015250565b6000611719600f83611428565b9150611724826116e3565b602082019050919050565b600060208201905081810360008301526117488161170c565b9050919050565b7f436f6e747261746f20696e617469766f00000000000000000000000000000000600082015250565b6000611785601083611428565b91506117908261174f565b602082019050919050565b600060208201905081810360008301526117b481611778565b9050919050565b7f4a61207061727469636970616e74650000000000000000000000000000000000600082015250565b60006117f1600f83611428565b91506117fc826117bb565b602082019050919050565b60006020820190508181036000830152611820816117e4565b9050919050565b7f4572726f20616f20766572696669636172206f20636f6e747261746f00000000600082015250565b600061185d601c83611428565b915061186882611827565b602082019050919050565b6000602082019050818103600083015261188c81611850565b9050919050565b7f736f20737562206f7520706c7573000000000000000000000000000000000000600082015250565b60006118c9600e83611428565b91506118d482611893565b602082019050919050565b600060208201905081810360008301526118f8816118bc565b9050919050565b7f53656d2073616c646f20737566696369656e7465000000000000000000000000600082015250565b6000611935601483611428565b9150611940826118ff565b602082019050919050565b6000602082019050818103600083015261196481611928565b905091905056fea264697066735822122022c6e2349affe29e1a2d85ae193d617abe08dbe6b4805fbae73bbaa567ef4ce964736f6c63430008130033",
  "immutableReferences": {},
  "source": "//SPDX-License-Identifier: MIT\r\npragma solidity ^0.8.0;\r\n\r\ncontract cooverContract {\r\n \r\n    address owner; // Endereo do dono do contrato\r\n    uint public creationDate; //data de criao\r\n    uint public monthly; // Valor mensal do seguro\r\n    uint public balance; // \r\n    uint public maxUsers;\r\n    uint public minUsers;\r\n    uint public numberusers; // Numero total de adeptos ao contrato\r\n    bool public isActive; // Contrato est ativo ou inativo (true e false)\r\n    uint public coverage; // Valor de cobertura do objeto assegurado\r\n    address[] private users;\r\n    mapping (address => uint) public participants; // Endereo dos usurios e o preo pago por eles\r\n    mapping (address => uint) public valorParticipants;\r\n    struct Wallet {\r\n    address userWallet;\r\n    }\r\n    Wallet[] public wallet;\r\n\r\n    // Constructor  uma funo que roda apenas uma vez na hora do deploy\r\n    constructor( uint _minUsers, uint _maxUsers, uint _numberusers, address[] memory integrantes, uint[] memory imei ) {\r\n\r\n        for(uint i = 0; i<integrantes.length; i++){\r\n            participants[integrantes[i]] = imei[i];\r\n        }\r\n        minUsers = _minUsers;\r\n        maxUsers = _maxUsers;\r\n        numberusers = _numberusers;\r\n        creationDate = block.timestamp; //salva a data da criao do contrato\r\n        isActive = true;\r\n        owner = msg.sender; // Garante que aquele que fez o deploy  o dono do contrato\r\n    }\r\n\r\n     // Verifica a viabilidade do contrato (FAZER USER STORY - vai ser um teste da user story 1)\r\n    function viabilidadeContrato() public view returns (uint) {\r\n        if (numberusers >= minUsers && block.timestamp <= creationDate && numberusers <= maxUsers) {\r\n            return 1; // Contrato Ativo\r\n        } else if (numberusers < minUsers && block.timestamp <= creationDate) {\r\n            return 2; // Contrato em Progresso\r\n        } else if (block.timestamp > creationDate && numberusers < minUsers) {\r\n            return 3; // Contrato Inativo\r\n        } else {\r\n            revert(\"Erro ao verificar o contrato\");\r\n        }\r\n    }\r\n\r\n    function pagamentoInicial() public payable{\r\n        valorParticipants[msg.sender] += msg.value;\r\n         \r\n    }\r\n\r\n\r\n    function join() public payable {\r\n        require(msg.value == monthly, \"Valor incorreto\");\r\n        require(isActive == true, \"Contrato inativo\");\r\n        require(participants[msg.sender] == 0, \"Ja participante\");\r\n        participants[msg.sender] = msg.value;\r\n        numberusers += 1;\r\n    }\r\n\r\n    function changeBalance(address _mudanca, uint _value, string memory oper) public {\r\n        require(msg.sender == owner, \"nao dono\");\r\n        require(keccak256(bytes(oper)) == keccak256(bytes(\"sub\")) || keccak256(bytes(oper)) == keccak256(bytes(\"plus\")), \"so sub ou plus\");\r\n        if (keccak256(bytes(oper)) == keccak256(bytes(\"sub\"))) {\r\n            require(participants[_mudanca] >= _value, \"Sem saldo suficiente\");\r\n            participants[_mudanca] -= _value;\r\n            payable(owner).transfer(_value);\r\n        } else if (keccak256(bytes(oper)) == keccak256(bytes(\"plus\"))) {\r\n            participants[_mudanca] += _value;\r\n        }\r\n    }\r\n    \r\n    function getBalance() public view returns (uint) {\r\n        return valorParticipants[msg.sender];\r\n    }\r\n\r\n    // Funo para remover um usurio do projeto\r\n   function removeUser(address usuario) public {\r\n    require(msg.sender == owner, \"nao dono\");\r\n      for (uint i = 0; i < wallet.length; i++) {\r\n          if (wallet[i].userWallet == usuario) {\r\n              // Retira a Wallet da lista\r\n              delete wallet[i];\r\n              // Retira um usurio do nmero de usurios\r\n              for (uint j = i; j < users.length - 1; j++) {\r\n                  users[j] = users[j+1];\r\n              }\r\n              users.pop();\r\n              // Atualiza o nmero de usurios\r\n              numberusers --;\r\n              // Quebra o loop\r\n              break;\r\n          }\r\n      }\r\n  }\r\n    // Funo para solicitar indenizao\r\nfunction solicitarIndenizacao() public {\r\n    require(participants[msg.sender] > 0, \"Nao e participante do contrato.\");\r\n    require(isActive == true, \"Contrato inativo.\");\r\n\r\n    // Realiza o pagamento da indenizao\r\n    payable(msg.sender).transfer(coverage);\r\n\r\n    // Atualiza o saldo do contrato\r\n    balance -= coverage;\r\n\r\n    // Remove o usurio da lista de usurios\r\n    for (uint i = 0; i < users.length; i++) {\r\n        if (users[i] == msg.sender) {\r\n            users[i] = users[users.length - 1];\r\n            users.pop();\r\n            break;\r\n        }\r\n    }\r\n\r\n    // Atualiza o nmero de usurios\r\n    numberusers -= 1;\r\n\r\n    // Remove o usurio da lista de participantes\r\n    delete participants[msg.sender];\r\n}\r\n\r\n\r\n    \r\n}",
  "sourcePath": "C:\\GitHub - Projetos\\INTELI 2 ANO\\MODULO 1\\Projeto2\\src\\Ambiente de Desenvolvimento\\build\\contracts\\coover.sol",
  "compiler": {
    "name": "solc",
    "version": "0.8.19+commit.7dd6d404.Emscripten.clang"
  },
  "schemaVersion": "3.4.13",
  "updatedAt": "2023-03-07T20:22:30.087Z",
  "devdoc": {
    "kind": "dev",
    "methods": {},
    "version": 1
  },
  "userdoc": {
    "kind": "user",
    "methods": {},
    "version": 1
  }
}